:030000000206A154
:10000300C0E0C0D0C000C001C002C038C037C03695
:10001300C035E4F530F531F532F533F5347A20E5C2
:1000230038A2E779047835E633F608D9FA79057802
:1000330030E636D4F608D9F9DAE5D035D036D037FC
:10004300D038D002D001D000D0D0D0E022C0E0C060
:10005300D0C000C001C002C034C033C032C031C000
:10006300307A207905C37834E613C0D030E7022410
:10007300D030E30224FDF618D0D0D9EC79047838D7
:10008300E613F618D9FADADBD200E5307002C200C3
:10009300D030D031D032D033D034D002D001D000E0
:1000A300D0D0D0E022C0E0C0D0E5352539F535E524
:1000B30036353AF536E537353BF537E538353CF532
:1000C300389200D0D0D0E022C0E0C0D0C3E535954F
:1000D30039F535E536953AF536E537953BF537E5A8
:1000E30038953CF5389200D0D0D0E022C0E0C0D0A3
:1000F300C3E5359539E536953AE537953BE53895CA
:100103003C9200D0D0D0E022C0E0C0D0C3E5399506
:1001130035E53A9536E53B9537E53C95389200D081
:10012300D0D0E022C0E0C0D0C200C3E5399535701D
:1001330014E53A9536700EE53B95377008E53C9526
:10014300387002D200D0D0D0E02212012720000361
:1001530002010B221201272000030200EF22C0E05C
:10016300C0F0C0D0C000C001C002C003C004C005BD
:10017300E5358539F0A4F8A9F0E5368539F0A429E9
:10018300F9E435F0FAE535853AF0A429F9E5F03AD2
:10019300FAE433FBE5378539F0A42AFAE5F03BFBB3
:1001A300E536853AF0A42AFAE5F03BFBE535853BD5
:1001B300F0A42AFAE5F03BFBE5388539F0A42BFBE4
:1001C300ACF07D00E537853AF0A42BFBE5F03CFC71
:1001D300E43DFDE536853BF0A42BFBE5F03CFCE478
:1001E3003DFDE535853CF0A42BFBE5F03CFCE43D0F
:1001F300FDEC4DFCE538853AF0A445F04CFCE537C1
:10020300853BF0A445F04CFCE536853CF0A445F075
:100213004CFCE538853BF0A445F04CFCE537853CC8
:10022300F0A445F04CFCE538853CF0A445F04CFCCB
:100233008B388A3789368835D200BC0002C200D099
:1002430005D004D003D002D001D000D0D0D0F0D05C
:10025300E022C0E0C0D0C000C001C002C003C0049F
:10026300E539453A453B453C7005D2000202C0C220
:10027300007C20E4F8F9FAFBC3E53533F535E536C0
:1002830033F536E53733F537E53833F538E833F802
:10029300E933F9EA33FAEB33FBC3E89539E9953AE5
:1002A300EA953BEB953C4013E89539F8E9953AF923
:1002B300EA953BFAEB953CFB433501DCBBD004D01C
:1002C30003D002D001D000D0D0D0E02285353985CB
:1002D300363A85373B85383C22E535C539F535E572
:1002E30036C53AF536E537C53BF537E538C53CF550
:0202F3003822AF
:1002F500C0F9A4B0999282F880908883C6A1868EB1
:10030500D202758FFF758E867594CE7593CE7592D4
:10031500C07591CE229002F5E53345346004D2EFE5
:100325008002C2EF30FB2FE530540F93F591E53095
:10033500C4540F93F592E531540F93F593E531C409
:10034500540F93F594E532540F93F58EE532C4546A
:100355000F93F58F8024E533540F93F591E533C45E
:10036500540F93F592E534540F93F593E534C45443
:100375000F93F594758EFF758FFF227804C3E530D2
:1003850033F530E53133F531E53233F532E53333E5
:10039500F533E53433F534D8E4EF4530F5302278DC
:1003A50004C3E53413F534E53313F533E53213F5BA
:1003B50032E53113F531E53013F530D8E422785ABA
:1003C500794A7AFADAFED9FAD8F622439B54439C45
:1003D50001539CAB539DFE2220F90E1203C320F955
:1003E5000830F9FD1203A4C322C292C294C296C278
:1003F500A0A2A282A482A682B05002C3221203C385
:10040500A2A282A482A682B05002C322D292D29422
:10041500D296D2A030E8030204D1C29220A2077F6F
:100425000130A2FDD32220A4077F0230A4FDD322F0
:1004350020A6077F0330A6FDD32220B0077F0A3010
:10044500B0FDD322D292C29420A2077F0430A2FD30
:10045500D32220A4077F0530A4FDD32220A6077F41
:100465000630A6FDD32220B0077F0B30B0FDD32286
:10047500D294C29620A2077F0730A2FDD32220A4E2
:10048500077F0830A4FDD32220A6077F0930A6FDEB
:10049500D32220B0077F0C30B0FDD322D296C2A064
:1004A50020A2077F0E30A2FDD32220A4077F0030B3
:1004B500A4FDD32220A6077F0F30A6FDD32220B0AE
:1004C500077F0D30B0FDD322D2A0C322C29220A255
:1004D500077F0A30A2FDD32220A4077F0B30A4FD9D
:1004E500D32220A6077F0C30A6FDD32220B0077F9C
:1004F5000D30B0FDD322D292C29420A2077F0330E3
:10050500A2FDD32220A4077F0630A4FDD32220A676
:10051500077F0930A6FDD32220B0077F0F30B0FD3D
:10052500D322D294C29620A2077F0230A2FDD32205
:1005350020A4077F0530A4FDD32220A6077F08301D
:10054500A6FDD32220B0077F0030B0FDD322D2967E
:10055500C2A020A2077F0130A2FDD32220A4077FDD
:100565000430A4FDD32220A6077F0730A6FDD322A1
:1005750020B0077F0E30B0FDD322D2A0C322BF0A20
:100585000875F000D2010205CABF0B0875F001D24B
:10059500010205CABF0C0875F002D2010205CABFE7
:1005A5000D0875F003D2010205CABF0E0875F004E7
:1005B500D2010205CABF0F0A300107C201E5F012D8
:1005C50005E80206BC12005020007B1202CF7535EB
:1005D5000075360075370075380012000312031ACE
:1005E5000206BCB4000F12005020005A1200A820C9
:1005F5000054020657B4011412005020004812029C
:10060500DC1200CBE53820E756020657B402091282
:1006150002DC12072B020657B40319120050200002
:1006250025E53545364537453860211202DC12028D
:1006350055020657B4048B120050200009120161BF
:1006450020000302065712030502031912030502CF
:100655000319D203C2E812000312031A0206BCD220
:1006650003D2E812067412000312031A0206BCE54F
:1006750035F4F535E536F4F536E537F4F537E5388F
:10068500F4F53874012535F53574003536F53674CD
:10069500003537F53774003538F5382275817FE434
:1006A500F5E8F595F530F531F532F533F534F541E5
:1006B500C203C2021203D01203DD20020312031A81
:1006C50050F52002227409C39F4042300348753516
:1006D50000753600753700753800120003C2E8C290
:1006E5000375410012071B7409C39F40CAC202C2A9
:1006F500E8C203754101753500753600753700751B
:100705003800120380EF4530F5300206BC75410014
:100715001205830206BC0541E541B40B0302064BF5
:100725001203800206BCC0E0C0D0C000C001C002F8
:10073500C003C004E5354536453745387002805756
:10074500E535B4010AE536453745387002804885F8
:10075500353D85363E85373F853840E53813F538D4
:10076500E53713F537E53613F536E53513F5357801
:10077500141202CF853D35853E36853F3785403895
:100785001202551200A8753902753A00753B0075BD
:100795003C00120255D8DAD004D003D002D001D0E3
:0607A50000D0D0D0E022DC
:00000001FF
